:020000040000fa
:080000000001040000000000f3
:020000040000fa
:100200000f80200080ff2000000188000000000017
:100210000a00070011000700000020000000e000b5
:100220000200320000000200000000008a0102000b
:10023000000000000040da000000fe004440a90079
:10024000000020000000e000030032000000200059
:10025000a00188004440a8000000060060212000a2
:10026000010020001600370062004000e0804800d6
:10027000910188009001ba0062004000e0804800cf
:10028000910188009002ba0062004000e0804800be
:100290000002eb006028e10005003a008301e9005c
:1002a00007003300038009000059eb000400370009
:1002b0006128e100010032000082eb000500070028
:1002c000910188001001ba000200e000e6ff3a0048
:1002d0000000050091018800800278006200400063
:1002e000e08048003559ba008301e9000800320077
:1002f0002559ba008301e900050032000400e0003e
:10030000f4ff320015d9ba008301e900f1ff3a0089
:0403100000000600e3
:020000040000fa
:0200000401f009
:04000000e6ff000017
:020000040000fa
:0200000401f009
:04000400ff7f00007a
:020000040000fa
:0200000401f009
:04000800fcff0000f9
:020000040000fa
:0200000401f009
:04001400ffff0000ea
:020000040000fa
:100008001802000018020000180200001802000080
:100018001802000018020000180200001802000070
:100028001802000018020000180200001802000060
:100038001802000018020000180200001802000050
:100048001802000018020000180200001802000040
:100058001802000018020000180200001802000030
:100068001802000018020000180200001802000020
:100078001802000018020000180200001802000010
:100088001802000018020000180200001802000000
:1000980018020000180200001802000018020000f0
:1000a80018020000180200001802000018020000e0
:1000b80018020000180200001802000018020000d0
:1000c80018020000180200001802000018020000c0
:1000d80018020000180200001802000018020000b0
:1000e80018020000180200001802000018020000a0
:0800f8001802000018020000cc
:020000040000fa
:10010800180200001802000018020000180200007f
:10011800180200001802000018020000180200006f
:10012800180200001802000018020000180200005f
:10013800180200001802000018020000180200004f
:10014800180200001802000018020000180200003f
:10015800180200001802000018020000180200002f
:10016800180200001802000018020000180200001f
:10017800180200001802000018020000180200000f
:1001880018020000180200001802000018020000ff
:1001980018020000180200001802000018020000ef
:1001a80018020000180200001802000018020000df
:1001b80018020000180200001802000018020000cf
:1001c80018020000180200001802000018020000bf
:1001d80018020000180200001802000018020000af
:1001e800180200001802000018020000180200009f
:0801f8001802000018020000cb
:020000040000fa
:100314000200fa000080eb0040158800f01f200066
:100324003016880080202000901688000000eb0022
:10033400f01688000000eb00501688000000eb0067
:10034400b01688000000eb00101788000040eb0096
:10035400004f7800300037001e04e00001003a002e
:10036400cb22a80010c0b3009e4f100001003a0039
:10037400cb42a80020c0b3009e4f100001003a00f9
:10038400cb62a80030c0b3009e4f100001003a00b9
:10039400cb82a80040c0b3009e4f100001003a0079
:1003a400d602a80050c0b3009e4f100001003a00ce
:1003b400d622a80060c0b3009e4f100001003a008e
:1003c400d702a80070c0b3009e4f100001003a008d
:1003d400e202a80080c0b3009e4f100001003a0062
:1003e400e222a80090c0b3009e4f100001003a0022
:1003f400e242a800a0c0b3009e4f100001003a00e2
:10040400e262a800b0c0b3009e4f100001003a00a1
:10041400e2c2a8001e4fe800b0c0b3009e4f100017
:08042400cdff3400c3ff3700d7
:020000040000fa
:04042c0000000000cc
:020000040000fa
:040430000000fe00ca
:00000001FF
