:0E0000000C9436000C9400000C9400000C943C
:10000E0000000C9400000C9400000C9400000C9462
:10001E0000000C9400000C9400000C9400000C9452
:10002E0066000C9400000C9485000C9400000C9457
:10003E0000000C9400000C9400000C9400000C9432
:10004E0000000C9400001027E80364000A00010071
:10005E00001000011000010025640A000000F89451
:10006E00EE27ECBBF1E0FBBFEBBFE5BFF8E1F1BD66
:10007E00E1BD8DE0A2E0BB27ED938A95E9F780E024
:10008E0094E0A0E6ED930197E9F7EAE6F0E08591BA
:10009E009591009761F0A591B59105901590BF01CE
:1000AE00F00105900D920197E1F7FB01F0CFEFE51E
:1000BE00EDBFE4E0EEBFC0E6D1E00C94B600EA93EB
:1000CE00FA93EFB7EA931A930A931BB10CB1E12F8F
:1000DE00EC7189F4E52DF0E0E05AFE4F0083539465
:1000EE00E8E0E51509F455247394E8E0E71519F4F2
:1000FE007724689420F80991199112C0EA93FA9323
:10010E00EFB7EA93882061F08A94E92DF0E0E85980
:10011E00FE4FE081ECB99394E8E0E91509F49924D7
:10012E00E991EFBFF991E9911895E8E0E815E9F347
:10013E00F894882011F45D990DC0E62DF0E0E85991
:10014E00FE4FA881A0836394E8E0E61509F46624C7
:10015E00839402C0E881ECB9789421960895EF97C4
:10016E00A597E0E0EBBBE1E0EABBE0E0E8BBE7BB74
:10017E00E5BBE4BBE2BBE1BBE3BFE2BFECBFEFBD5F
:10018E00EEBDEDBDECBDE7BDE6BDEBBDEABDE9BD27
:10019E00E8BDE2BDE5BDE4BDE3BDE5BFE4BFE9BF3B
:1001AE00EBB9E8EDEAB9E6E8E0BDE0E0E0BDE9E193
:1001BE00E9B9E0E8E8B9E0E0E0BF0E94890378948D
:1001CE00E0EFEA93E0E7F1E0FA93EA930E94D903B5
:1001DE000E2F10E0101770F5A9E01A9FF001E059EC
:1001EE00FE4FFA93EA937AD09F01FE01FA93EA93B7
:1001FE00E6E6F0E0FA93EA93F9010E9467040E94A2
:10020E00940484E00E94F002289640E050E0FE0143
:10021E00FA93EA930E9468034E175F0750F4DE01CB
:10022E00A40FB51FEC91EA930E949C004F5F5F4FA5
:10023E00EECFD0CFCECFFFCF1A930E948903E030FE
:10024E0019F4E0E018811BC0E981FA81309789F03A
:10025E00E5E5EA930E94CF0310E0A981BA81ED9102
:10026E00A983BA83EA930E94CF031F5F1830A8F3C5
:10027E0004C0ECECEA930E94CF03E1E018812396D0
:10028E0008950E949B04EC81FD81FA93EA930E94EB
:10029E002301E03011F4E0E01DC0EEEBEA930E9482
:1002AE00CF0310E02EE732E03F932F932F5F3F4FA7
:1002BE000E94CA03AF91BF91EC931F5F1930A0F358
:1002CE00EEE7F2E0FA93EA93E9E0EA930E9449043A
:1002DE000E946C040E94A20426960895E881F9817A
:1002EE00FA93EA930E942301E03019F4E1EFF8ED5E
:1002FE0024C0E4E4EA930E94CF03E6E2F2E0FA932C
:10030E00EA930E947D03E881F981FA93EA930E94B1
:10031E004801E03019F4E1EFF8ED0FC00E948903B7
:10032E00F0917F02E0E0DF01E0917E02F0E0EA2B47
:10033E00FB2BA5E0B0E00E947904229608951A9353
:10034E000A93AC81BD810E948C043097D9F0AA81AA
:10035E00BB810E948C048F01309749F00230E0E09F
:10036E001E0778F0F80131978F01ED93FC93AC8165
:10037E00BD81ED91FD913196FE93EE933197AE8155
:10038E00A08304C0EE81EA930E949C00198108812B
:10039E002796089526970E94990410E0EA89FB8912
:1003AE003196EA8BFB8B3197E4912E2FE03011F4CE
:1003BE000C94EC02E12FE03031F4253211F411E00F
:1003CE0001C034D101C1E130A1F4253211F42ED196
:1003DE00FAC012E040E000E02D3211F401E0F4C06A
:1003EE002B3211F44BE2F0C0203211F440E2ECC09B
:1003FE0002C0E23039F450E013E0203311F400680B
:10040E00E3C004C0E33011F00C94EB02203310F083
:10041E002A3308F009C0A52FEAE0EA9FF0015E2F0B
:10042E00E22FE0535E0FD0C0E22FE33621F408D165
:10043E00EC910DD1C8C0E33731F402D112D10E9434
:10044E0068031E2F08C0E03751F4FAD00AD10E947B
:10045E0072031E2F086002600F7730E036C0E4365C
:10046E0011F0E93611F4046002C0E53731F4E4E529
:10047E00F0E0EE83FF8315E00DC0E83511F408605F
:10048E0004C0E83711F00C94EA02EEE5F0E0EE83DA
:10049E00FF8314E002FF14C0D3D00E948C04EA87BD
:1004AE00FB87AA85BB8510972CF40E946304EA870C
:1004BE00FB874DE2403011F01F5F01C00B7F05C07E
:1004CE00BFD00E948C04EA87FB8700FD10C0151771
:1004DE0070F407FF08C002FF04C00B7F242F1150D9
:1004EE0001C020E301C020E2A1D05150F0CF312F46
:1004FE0001FF19C03030B1F003FF08C0EE81FF815B
:10050E003196EE83FF833197E49105C0AE81BF81B2
:10051E00ED91AE83BF83EA93ABD0503009F05150CA
:10052E003150E8CF48C020E3EE81FF813296EE8352
:10053E00FF8332970E949004E887F987E885F98552
:10054E00AA85BB85AE17BF0750F02F5FA885B9856A
:10055E00EA85FB85EA1BFB0BEA87FB87EFCF2A3385
:10056E0028F003FF02C0295F01C0295D04FD19C0F8
:10057E00213320F4A885B985119709F409C05317C2
:10058E0010F000FF01C011C020E207FF0AC020E3F7
:10059E00006102FF06C00B7F4A936AD0503009F00B
:1005AE00515044D0503009F051503150A885B98582
:1005BE00129708F0B8CF00FF06C0503021F051500E
:1005CE00E0E245D0FACF10E0E9CE0E94A004649696
:1005DE000895FF92F82E22971A930A93DE010E9435
:1005EE005F048D01DE0116960E945F040E948C044A
:1005FE00EA83FB83DE0114960E945F040E948C0442
:10060E00FA93EA931A930A93FE013696FA93EA93B3
:10061E00E0E0F0E0FA93EA93BDDEAA81BB81E0E070
:10062E00EC93198108812496FF9008952A93EF8503
:10063E00F889FA93EA93FE013F96FA93EA937FCEF6
:10064E00A889B9891497A88BB98B14960895EA9343
:10065E00EF85F889FA93EA93FE013F96FA93EA93AF
:10066E006ECE0E948C04EE83FF83FA93EA93089574
:10067E00EF85F889FA93EA93FE013F96FA93EA938F
:10068E005ECEE1E0F991F03310F0FA3308F0EE2788
:10069E000895E1E0F991F03229F0F93010F0FE30D2
:1006AE0008F0EE270895E1E0F991F05340F0FA30AA
:1006BE0038F0FF75F750FA3010F0F03108F0EE27F1
:1006CE000895A991B991EE27FF276D91662311F038
:1006DE003196FBCF0895AA27BB27E991F991059092
:1006EE00002011F01196FBCFFD010895E991F991CB
:1006FE00309639F088EE93E00197F1F7A89531978F
:10070E00C9F70895EE27D898D09A80EE91E0019718
:10071E00F1F7D09883E18A95F1F7C89B089585E6A5
:10072E008A95F1F7C89BE39586E891E00197F1F77A
:10073E000895D09A83E08A95F1F7D0988FE08A9544
:10074E00F1F78894C8990894E7958BE68A95F1F7A6
:10075E000895E894D09A83E08A95F1F770FDD098C9
:10076E0081E18A95F1F7C89903C070FF03C008951F
:10077E0070FF089584E68A95F1F7D09887E08A9500
:10078E00F1F76894089568E0D4DF6A95E9F7089563
:10079E0068E07991EE27DDDF26F477956A95D9F733
:1007AE00E39508954F935F9311244427A881B9814F
:1007BE00012C1124A7DFEE23F9F0EA81EA93E8DF9A
:1007CE0051E0501598F4B5DFE7FD08C0B2DFE7FD44
:1007DE0006C03FD0892319F4152E01C0AADF39D0E7
:1007EE00892370E009F071E0B4DF1EC0A2DFE7FFDD
:1007FE000BC09FDFE7FF05C0E42F5F914F9123965B
:10080E000895689437D0EFCF94DFE7FF01C003C09F
:10081E00501531F0152EE8942DD077279ADF04C0AD
:10082E00689428D071E095DF5395513454F281DFEE
:10083E00EE1FEE1FE1701896EC931897439511205A
:10084E00D9F259E0EC911996EC9318975A95D1F785
:10085E00AFCFE52FEA956E2FE695E695E695FF2745
:10086E00EA0FFB1F808191E0677019F0990F6A956E
:10087E00FCCF0895EEDF1EF09095892301C0892BE1
:10088E0080830895EE278881882381F068E1A9810D
:10089E00BA8198E0FD917F2F7E27779508F4E627A1
:1008AE00E795F6959A95B9F78A9599F7239608954F
:1008BE000024AF0DB01D0895F195E195F040089517
:1008CE006F2F660F660B762F0895EE23E1E009F089
:1008DE00EE270895FA9FF02DEB9FF00DEA9FE02D85
:1008EE00F10D089504D0F6DF0EF4E6DF0895E894D6
:1008FE00F7FF02C0E1DF6894B7FF06C0A095B09580
:10090E00119600F8039400FA0895ED91FC91119759
:10091E0008950590F491E02D08957A936A93FA93D1
:10092E00EA9308955A934A933A932A931A930A9301
:10093E0008955D814C813B812A811981088108953A
:00000001FF
